:1000000003C05FC05AC000C04FE147BB40EF48BBD0
:1000100040E041BB4BEF42BB40E0042E142E242EA7
:10002000342E442E542E642E742E842E942EA42E00
:10003000B42EC42ED42EE42EF42E042F142F242FED
:10004000342FA42F642F70E0942FCC27A42F42E0EC
:1000500045BF40E44BBF42E048BF49BF789441E010
:1000600043BF40E042BFB0E0EC2F4081B0EF70FDF5
:1000700042954F70B42B40EFC03019F4703009F442
:1000800041EF48BBB599FECFB8BBBF7EB8BB7395F7
:10009000723009F4C395733010F070E0C395B59BCE
:1000A000FECFC43149F4C395FF3FF1F7F0E041EFD3
:1000B00048BBB599FECFCC27D7CF5FB793955FBF2D
:1000C00018955FB7F0E0F3BFDE2F82B7F8B7E0E036
:1000D000E2BFE1E0E3BFF1FF03C09395E2E0E8BFD8
:1000E0009E3010F161E0FC2FF695E9E0EF17D9F0B2
:1000F000E82FE695E695E695F92FF0FDE062F1FD33
:10010000E064F2FDE068F695F695F6952E2F3F2F08
:10011000EA2FA0E0EE0FE23129F0A083E395A0835F
:10012000E395F9CFFFEF17C0603009F414C06A17E8
:1001300008F0A62FFC2FF695E62FEA95EF1729F089
:10014000EE0FF0E08083E3959083E0E0F9E06F1735
:0E01500008F06A95639590E0ED2F5FBF18955B
:00000001FF
